:0300000002022ACF
:0C022A00787FE4F6D8FD75812D0202718A
:10048C00C0F9A4B0999282F8809040792430191266
:04049C0002780010D2
:10044F000A190102030405060708090A10097F3F6C
:10045F001F0F0703010080C0E0F0F8FCFEFF02242D
:05046F0014500108001B
:1002B60074FFF528F529758921759840E4F5877549
:1002C6008DFD758BFDD28E758CEEF58AD2AFD2A9D7
:1002D600C28C8528268529271203208E288F29E59A
:1002E6002765297004E526652860037580FFE528E3
:1002F6007023E52914600F14601114601324037031
:10030600141203BF80CC12000380C71200CE80C235
:0A03160012000E80BD7580FF80B854
:10047500D3EF9400EE9400400DE4FD0DBD7DFCEF3F
:060485001F70ED1E80EA6D
:01048B00224E
:1004A000000000000000000000000000000000004C
:0304B00000002227
:100320007590FFA2A5E433FFA2A4E4332FFFE433CA
:10033000FEA2A6E4FC332FFFEC3EFEA2A7E4332F7F
:10034000FFEC3EFEEF64034E6002801F20A404E435
:10035000FEFF2220A5057E007F012220A6057E004B
:100360007F022220A7057E007F03227EFF7FFF22DF
:1003BF00E4FCA2A5E433FFA2A4E4332FFFE433FE51
:1003CF00A2A6E4FA332FFFEA3EFEA2A7E4332FFFE3
:1003DF00EA3EFEEF64034E7015C3740E9C2409F8B9
:0E03EF00E6F5807FF47E011204750CBC0FC48D
:0103FD0022DD
:03000300D28C227A
:1000CE00E4F52AF52BC3E52B9401E52A648094848C
:1000DE00504B30A606E4FFFE1203FEA2A5E433FF4A
:1000EE00A2A4E4332FFFE433FEA2A6E4FC332FFFD9
:1000FE00EC3EFEA2A7E4332FFFEC3EFEEF64034E70
:10010E00701BAF2BAE2A1203FE7F147E00120475F5
:10011E007404252BF52BE4352AF52A80A8752A04BC
:10012E00752B00C3E52A64809480404C30A606E40B
:10013E00FFFE1203FEA2A5E433FFA2A4E4332FFFB9
:10014E00E433FEA2A6E4FC332FFFEC3EFEA2A7E4AE
:10015E00332FFFEC3EFEEF64034E701CAF2BAE2A26
:10016E001203FE7F147E0012047574FC252BF52BF2
:0F017E0074FF352AF52A80AB7F647E000204757A
:10000E00D2B6C2B7D2B530A7030200CD120427EF85
:10001E0075F027A4FBAAF07C037DE8FFAE02120167
:10002E00F48F2A7E007C037DE812018DC3EB9FFFC7
:10003E00EA9EFE7C007D6412019F8F2BAF2A7E000C
:10004E007C037DE812018DC3EB9FFDEA9EFCE52B40
:10005E0075F064A4FFC3ED9FFFEC95F0FE7C007D70
:10006E000A12019F8F2CAE02AF037C007D0A120193
:10007E00F48D2D7B807A00E4FC7F027E00120475E5
:10008E00AF037801EF08800123D8FD7A00FB44F01E
:10009E00F5A0ECC39403742A50082CF8E690048C57
:1000AE0080062CF8E690049693F5907F027E00125F
:0F00BE0004757590FF0CBC04C07590FF02001410
:0100CD002210
:03000B000203707D
:10037000C0E0C0D0758CEE758A00E525B45007E565
:1003800024B41402800AE525B48808E524B41303D4
:100390006380FFE525152570021524D3E52594001B
:1003A000E5249400500675241475255030A50B756E
:0F03B00080FF752414752550C28CD0D0D0E03258
:1003FE00EF7806C333CE33CED8F9FFC2B3C2B2E420
:10040E00FDEE3392B4D2B2EF25E0FFEE33FEC2B270
:08041E000DBD0CEDD2B3C2B21A
:0104260022B3
:10042700C2B61204A0E4FE30B503430701EEC3943D
:10043700075004EF25E0FFD2B700000000C2B70065
:07044700000EBE08E2D2B670
:01044E00228B
:100236000202B6E493A3F8E493A34003F68001F226
:1002460008DFF48029E493A3F85407240CC8C333C9
:10025600C4540F4420C8834004F456800146F6DF98
:10026600E4800B010204081020408090044FE47ED5
:10027600019360BCA3FF543F30E509541FFEE4938D
:10028600A360010ECF54C025E060A840B8E493A354
:10029600FAE493A3F8E493A3C8C582C8CAC583CA7F
:1002A600F0A3C8C582C8CAC583CADFE9DEE780BE37
:010474000087
:10018D00EF8DF0A4A8F0CF8CF0A428CE8DF0A42E86
:02019D00FE2240
:10019F00BC000BBE0029EF8DF084FFADF022E4CC44
:1001AF00F875F008EF2FFFEE33FEEC33FCEE9DEC0D
:1001BF00984005FCEE9DFE0FD5F0E9E4CEFD22ED53
:1001CF00F8F5F0EE8420D21CFEADF075F008EF2F9D
:1001DF00FFED33FD4007985006D5F0F222C398FD8E
:0501EF000FD5F0EA222B
:1001F400C2D5EC30E709B2D5E4C39DFDE49CFCEE26
:1002040030E715B2D5E4C39FFFE49EFE12019FC3FD
:10021400E49DFDE49CFC800312019F30D507C3E4F8
:060224009FFFE49EFE2294
:00000001FF
