:0300000002018278
:0C018200787FE4F6D8FD7581310201C9D8
:1004580040792430191202780010107940791979FE
:0204680024125C
:100408000A190102030405060708090A10097F3FB3
:100418001F0F0703010080C0E0F0F8FCFEFF022474
:05042800145001080062
:10020E0074FFF528F529758921759840E4F58775F1
:10021E008DFD758BFDD28E758CEEF58AD2AFD2A97F
:10022E00C28C8528268529271202DF8E288F29E584
:10023E002765297004E526652860037580FFE5288B
:10024E007023E52914600F146011146013240370D9
:10025E001412037880CC12000380C71200D580C21E
:0A026E0012000E80BD7580FF80B8FD
:10042E00D3EF9400EE9400400DE4FD0DBD7DFCEF86
:06043E001F70ED1E80EAB4
:010444002295
:1004450000000000000000000000000000000000A7
:0304550000002282
:1002DF007590FFA2A5E433FFA2A4E4332FFFE4330C
:1002EF00FEA2A6E4FC332FFFEC3EFEA2A7E4332FC1
:1002FF00FFEC3EFEEF64034E6002801F20A404E477
:10030F00FEFF2220A5057E007F012220A6057E008C
:10031F007F022220A7057E007F03227EFF7FFF2220
:10037800E4FCA2A5E433FFA2A4E4332FFFE433FE98
:10038800A2A6E4FA332FFFEA3EFEA2A7E4332FFF2A
:10039800EA3EFEEF64034E7015C3740E9C2409F800
:0E03A800E6F5807FF47E0112042E0CBC0FC41B
:0103B6002224
:03000300D28C227A
:1000D500E4F52AF52BC3E52B9401E52A6480948485
:1000E5005042A2A5E433FFA2A4E4332FFFE433FE7C
:1000F500A2A6E4FC332FFFEC3EFEA2A7E4332FFFBC
:10010500EC3EFEEF64034E701BAF2BAE2A1203B715
:100115007F147E0012042E7404252BF52BE4352A5A
:10012500F52A80B1752A04752B00C3E52A648094ED
:10013500804043A2A5E433FFA2A4E4332FFFE433B8
:10014500FEA2A6E4FC332FFFEC3EFEA2A7E4332F6C
:10015500FFEC3EFEEF64034E701CAF2BAE2A12037C
:10016500B77F147E0012042E74FC252BF52B74FF2B
:0D017500352AF52A80B47F647E0002042E36
:10000E00D2B6C2B7D2B530A7030200D41203E0AB0A
:10001E00077A007C037DE87E0012028A8E2A8F2BDF
:10002E007C037DE8120278C3EB9FFFEA9EFE7C0004
:10003E007D6412028A8E2C8F2DAE2AAF2B7C037D0F
:10004E00E8120278C3EB9FF582EA9EF583AE2CAFE1
:10005E002D7C007D64120278C3E5829FFFE5839EAE
:10006E00FE7D0A12028A8E2E8F2F7E00AF037C0039
:10007E007D0A12028A8C308D3175A080AFA0AB073D
:10008E00E4FC7F027E0012042EAF037801EF08809D
:10009E000123D8FD7A00FB440FF5A0EC25E0242ABD
:1000AE00F8E6FE08E62458F58274043EF583E493E0
:1000BE00F5907F027E0012042E7590FF0CBC04C2D8
:0600CE007590FF02001412
:0100D4002209
:03000B0002032FBE
:10032F00C0E0C0D0758CEE758A00E525B45007E5A6
:10033F0024B41402800AE525B48808E524B4130315
:10034F006380FFE525152570021524D3E52594005C
:10035F00E5249400500675241475255030A50575B5
:09036F0080FFC28CD0D0D0E03236
:1003B700EF7806C333CE33CED8F9FFC2B3C2B2E467
:1003C700FDEE3392B4D2B2EF25E0FFEE33FEC2B2B8
:0803D7000DBD0CEDD2B3C2B262
:0103DF0022FB
:1003E000C2B6120445E4FE30B503430701EEC394E0
:1003F000075004EF25E0FFD2B700000000C2B700AD
:07040000000EBE08E2D2B6B7
:0104070022D2
:10018E0002020EE493A3F8E493A34003F68001F277
:10019E0008DFF48029E493A3F85407240CC8C33372
:1001AE00C4540F4420C8834004F456800146F6DF41
:1001BE00E4800B0102040810204080900408E47EC5
:1001CE00019360BCA3FF543F30E509541FFEE49336
:1001DE00A360010ECF54C025E060A840B8E493A3FD
:1001EE00FAE493A3F8E493A3C8C582C8CAC583CA28
:1001FE00F0A3C8C582C8CAC583CADFE9DEE780BEE0
:01042D0000CE
:10027800EF8DF0A4A8F0CF8CF0A428CE8DF0A42E9A
:02028800FE2254
:10028A00BC000BBE0029EF8DF084FFADF022E4CC58
:10029A00F875F008EF2FFFEE33FEEC33FCEE9DEC21
:1002AA00984005FCEE9DFE0FD5F0E9E4CEFD22ED67
:1002BA00F8F5F0EE8420D21CFEADF075F008EF2FB1
:1002CA00FFED33FD4007985006D5F0F222C398FDA2
:0502DA000FD5F0EA223F
:00000001FF
