:0300000002022ACF
:0C022A00787FE4F6D8FD75812302027194
:10047300C0F9A4B0999282F880904079243019127F
:0404830002780010EB
:1004420010097F3F1F0F0703010080C0E0F0F8FC96
:09045200FEFF021A14500108001B
:1002B60074FFF51EF51F758901758CEEE4F58AD27B
:1002C600AFD2A9C28C851E1C851F1D1203138E1E5C
:1002D6008F1FE51D651F7004E51C651E6003758094
:1002E600FFE51E7023E51F14600F146011146013E0
:1002F600240370141203B280CC12000380C71200CC
:0D030600CE80C212000E80BD7580FF80B851
:10045C00D3EF9400EE9400400DE4FD0DBD7DFCEF58
:06046C001F70ED1E80EA86
:010472002267
:100487000000000000000000000000000000000065
:0304970000002240
:1003130075A0F0A2A5E433FFA2A4E4332FFFE433D6
:10032300FEA2A6E4FC332FFFEC3EFEA2A7E4332F8C
:10033300FFEC3EFEEF64034E6002801F20A404E442
:10034300FEFF2220A5057E007F012220A6057E0058
:100353007F022220A7057E007F03227EFF7FFF22EC
:1003B200E4FCA2A5E433FFA2A4E4332FFFE433FE5E
:1003C200A2A6E4FA332FFFEA3EFEA2A7E4332FFFF0
:1003D200EA3EFEEF64034E7015C3740E9C2409F8C6
:0E03E200E6F5807FF47E0112045C0CBC0FC4B3
:0103F00022EA
:03000300D28C227A
:1000CE00E4F520F521C3E5219401E52064809484B4
:1000DE00504B30A606E4FFFE1203F1A2A5E433FF57
:1000EE00A2A4E4332FFFE433FEA2A6E4FC332FFFD9
:1000FE00EC3EFEA2A7E4332FFFEC3EFEEF64034E70
:10010E00701BAF21AE201203F17F147E0012045C2F
:10011E0074042521F521E43520F52080A8752004EE
:10012E00752100C3E52064809480404C30A606E41F
:10013E00FFFE1203F1A2A5E433FFA2A4E4332FFFC6
:10014E00E433FEA2A6E4FC332FFFEC3EFEA2A7E4AE
:10015E00332FFFEC3EFEEF64034E701CAF21AE203A
:10016E001203F17F147E0012045C74FC2521F5212C
:0F017E0074FF3520F52080AB7F647E0002045CA7
:10000E00D2B6C2B7D2B530A7030200CD12041AEF92
:10001E0075F027A4FBAAF07C037DE8FFAE02120167
:10002E00F48F207E007C037DE812018DC3EB9FFFD1
:10003E00EA9EFE7C007D6412019F8F21AF207E0020
:10004E007C037DE812018DC3EB9FFDEA9EFCE5214A
:10005E0075F064A4FFC3ED9FFFEC95F0FE7C007D70
:10006E000A12019F8F22AE02AF037C007D0A12019D
:10007E00F48D237B807A00E4FC7F027E0012045C08
:10008E00AF037801EF08800123D8FD7A00FB44F01E
:10009E00F5A0ECC39403742050082CF8E69004737A
:1000AE0080062CF8E690047D93F5907F027E001278
:0F00BE00045C7590FF0CBC04C07590FF02001429
:0100CD002210
:03000B000203638A
:10036300C0E0C0D0758CEE758A00E51BB45007E57C
:100373001AB41402800AE51BB48808E51AB41303FF
:100383006380FFE51B151B7002151AD3E51B940050
:10039300E51A94005006751A14751B5030A50B7599
:0F03A30080FF751A14751B50C28CD0D0D0E03279
:1003F100EF7806C333CE33CED8F9FFC2B3C2B2E42D
:10040100FDEE3392B4D2B2EF25E0FFEE33FEC2B27D
:080411000DBD0CEDD2B3C2B227
:0104190022C0
:10041A00C2B6120487E4FE30B503430701EEC39463
:10042A00075004EF25E0FFD2B700000000C2B70072
:07043A00000EBE08E2D2B67D
:010441002298
:100236000202B6E493A3F8E493A34003F68001F226
:1002460008DFF48029E493A3F85407240CC8C333C9
:10025600C4540F4420C8834004F456800146F6DF98
:10026600E4800B0102040810204080900442E47EE2
:10027600019360BCA3FF543F30E509541FFEE4938D
:10028600A360010ECF54C025E060A840B8E493A354
:10029600FAE493A3F8E493A3C8C582C8CAC583CA7F
:1002A600F0A3C8C582C8CAC583CADFE9DEE780BE37
:01045B0000A0
:10018D00EF8DF0A4A8F0CF8CF0A428CE8DF0A42E86
:02019D00FE2240
:10019F00BC000BBE0029EF8DF084FFADF022E4CC44
:1001AF00F875F008EF2FFFEE33FEEC33FCEE9DEC0D
:1001BF00984005FCEE9DFE0FD5F0E9E4CEFD22ED53
:1001CF00F8F5F0EE8420D21CFEADF075F008EF2F9D
:1001DF00FFED33FD4007985006D5F0F222C398FD8E
:0501EF000FD5F0EA222B
:1001F400C2D5EC30E709B2D5E4C39DFDE49CFCEE26
:1002040030E715B2D5E4C39FFFE49EFE12019FC3FD
:10021400E49DFDE49CFC800312019F30D507C3E4F8
:060224009FFFE49EFE2294
:00000001FF
